:100000000C9438000C9442000C9442000C94420072
:100010000C9442000C9442000C9442000C94420058
:100020000C9442000C9442000C9442000C94420048
:100030000C9442000C9442000C9442000C94420038
:100040000C9442000C9442000C9442000C94420028
:100050000C9442000C9442000C9442000C94420018
:100060000C9442000C9442000C9442000C94420008
:1000700011241FBECFEFD4E0DEBFCDBF0E944400ED
:100080000C9456000C94000081E087BB18BA88BB22
:10009000EFE1FEE43197F1F700C0000018BAEFE19C
:1000A000FEE43197F1F700C00000F1CFF894FFCFE4
:00000001FF
