:100000000C9434000C9446000C9446000C9446006A
:100010000C9446000C9446000C9446000C94460048
:100020000C9446000C9446000C9446000C94460038
:100030000C9446000C9446000C9448000C94460026
:100040000C9446000C9446000C9446000C94460018
:100050000C9446000C9446000C9446000C94460008
:100060000C9446000C94460011241FBECFEFD8E03C
:10007000DEBFCDBF21E0A0E0B1E001C01D92A23003
:10008000B207E1F70E9464000C9471000C94000028
:100090001F921FB61F9211248F939F93809100018E
:1000A00090910101019690930101809300018536A2
:1000B000910524F085B191E0892785B99F918F91B1
:1000C0001F901FBE1F90189581E084B915B882E07B
:1000D00084BD9FEF97BD80936E00789485E085BDC9
:0600E000FFCFF894FFCFF2
:00000001FF
